{
  "_format": "hh-sol-artifact-1",
  "contractName": "Token",
  "sourceName": "contracts/Token.sol",
  "abi": [
    {
      "inputs": [
        {
          "internalType": "uint256",
          "name": "_initialSupply",
          "type": "uint256"
        }
      ],
      "stateMutability": "nonpayable",
      "type": "constructor"
    },
    {
      "anonymous": false,
      "inputs": [
        {
          "indexed": true,
          "internalType": "address",
          "name": "owner",
          "type": "address"
        },
        {
          "indexed": true,
          "internalType": "address",
          "name": "spender",
          "type": "address"
        },
        {
          "indexed": false,
          "internalType": "uint256",
          "name": "value",
          "type": "uint256"
        }
      ],
      "name": "Approval",
      "type": "event"
    },
    {
      "anonymous": false,
      "inputs": [
        {
          "indexed": true,
          "internalType": "address",
          "name": "delegator",
          "type": "address"
        },
        {
          "indexed": true,
          "internalType": "address",
          "name": "fromDelegate",
          "type": "address"
        },
        {
          "indexed": true,
          "internalType": "address",
          "name": "toDelegate",
          "type": "address"
        }
      ],
      "name": "DelegateChanged",
      "type": "event"
    },
    {
      "anonymous": false,
      "inputs": [
        {
          "indexed": true,
          "internalType": "address",
          "name": "delegate",
          "type": "address"
        },
        {
          "indexed": false,
          "internalType": "uint256",
          "name": "previousBalance",
          "type": "uint256"
        },
        {
          "indexed": false,
          "internalType": "uint256",
          "name": "newBalance",
          "type": "uint256"
        }
      ],
      "name": "DelegateVotesChanged",
      "type": "event"
    },
    {
      "anonymous": false,
      "inputs": [
        {
          "indexed": true,
          "internalType": "address",
          "name": "from",
          "type": "address"
        },
        {
          "indexed": true,
          "internalType": "address",
          "name": "to",
          "type": "address"
        },
        {
          "indexed": false,
          "internalType": "uint256",
          "name": "value",
          "type": "uint256"
        }
      ],
      "name": "Transfer",
      "type": "event"
    },
    {
      "inputs": [],
      "name": "DOMAIN_SEPARATOR",
      "outputs": [
        {
          "internalType": "bytes32",
          "name": "",
          "type": "bytes32"
        }
      ],
      "stateMutability": "view",
      "type": "function"
    },
    {
      "inputs": [
        {
          "internalType": "address",
          "name": "owner",
          "type": "address"
        },
        {
          "internalType": "address",
          "name": "spender",
          "type": "address"
        }
      ],
      "name": "allowance",
      "outputs": [
        {
          "internalType": "uint256",
          "name": "",
          "type": "uint256"
        }
      ],
      "stateMutability": "view",
      "type": "function"
    },
    {
      "inputs": [
        {
          "internalType": "address",
          "name": "spender",
          "type": "address"
        },
        {
          "internalType": "uint256",
          "name": "amount",
          "type": "uint256"
        }
      ],
      "name": "approve",
      "outputs": [
        {
          "internalType": "bool",
          "name": "",
          "type": "bool"
        }
      ],
      "stateMutability": "nonpayable",
      "type": "function"
    },
    {
      "inputs": [
        {
          "internalType": "address",
          "name": "account",
          "type": "address"
        }
      ],
      "name": "balanceOf",
      "outputs": [
        {
          "internalType": "uint256",
          "name": "",
          "type": "uint256"
        }
      ],
      "stateMutability": "view",
      "type": "function"
    },
    {
      "inputs": [
        {
          "internalType": "address",
          "name": "account",
          "type": "address"
        },
        {
          "internalType": "uint32",
          "name": "pos",
          "type": "uint32"
        }
      ],
      "name": "checkpoints",
      "outputs": [
        {
          "components": [
            {
              "internalType": "uint32",
              "name": "fromBlock",
              "type": "uint32"
            },
            {
              "internalType": "uint224",
              "name": "votes",
              "type": "uint224"
            }
          ],
          "internalType": "struct ERC20Votes.Checkpoint",
          "name": "",
          "type": "tuple"
        }
      ],
      "stateMutability": "view",
      "type": "function"
    },
    {
      "inputs": [],
      "name": "decimals",
      "outputs": [
        {
          "internalType": "uint8",
          "name": "",
          "type": "uint8"
        }
      ],
      "stateMutability": "view",
      "type": "function"
    },
    {
      "inputs": [
        {
          "internalType": "address",
          "name": "spender",
          "type": "address"
        },
        {
          "internalType": "uint256",
          "name": "subtractedValue",
          "type": "uint256"
        }
      ],
      "name": "decreaseAllowance",
      "outputs": [
        {
          "internalType": "bool",
          "name": "",
          "type": "bool"
        }
      ],
      "stateMutability": "nonpayable",
      "type": "function"
    },
    {
      "inputs": [
        {
          "internalType": "address",
          "name": "delegatee",
          "type": "address"
        }
      ],
      "name": "delegate",
      "outputs": [],
      "stateMutability": "nonpayable",
      "type": "function"
    },
    {
      "inputs": [
        {
          "internalType": "address",
          "name": "delegatee",
          "type": "address"
        },
        {
          "internalType": "uint256",
          "name": "nonce",
          "type": "uint256"
        },
        {
          "internalType": "uint256",
          "name": "expiry",
          "type": "uint256"
        },
        {
          "internalType": "uint8",
          "name": "v",
          "type": "uint8"
        },
        {
          "internalType": "bytes32",
          "name": "r",
          "type": "bytes32"
        },
        {
          "internalType": "bytes32",
          "name": "s",
          "type": "bytes32"
        }
      ],
      "name": "delegateBySig",
      "outputs": [],
      "stateMutability": "nonpayable",
      "type": "function"
    },
    {
      "inputs": [
        {
          "internalType": "address",
          "name": "account",
          "type": "address"
        }
      ],
      "name": "delegates",
      "outputs": [
        {
          "internalType": "address",
          "name": "",
          "type": "address"
        }
      ],
      "stateMutability": "view",
      "type": "function"
    },
    {
      "inputs": [
        {
          "internalType": "uint256",
          "name": "blockNumber",
          "type": "uint256"
        }
      ],
      "name": "getPastTotalSupply",
      "outputs": [
        {
          "internalType": "uint256",
          "name": "",
          "type": "uint256"
        }
      ],
      "stateMutability": "view",
      "type": "function"
    },
    {
      "inputs": [
        {
          "internalType": "address",
          "name": "account",
          "type": "address"
        },
        {
          "internalType": "uint256",
          "name": "blockNumber",
          "type": "uint256"
        }
      ],
      "name": "getPastVotes",
      "outputs": [
        {
          "internalType": "uint256",
          "name": "",
          "type": "uint256"
        }
      ],
      "stateMutability": "view",
      "type": "function"
    },
    {
      "inputs": [],
      "name": "getTokenHolders",
      "outputs": [
        {
          "components": [
            {
              "internalType": "address",
              "name": "addr",
              "type": "address"
            },
            {
              "internalType": "uint256",
              "name": "tokens",
              "type": "uint256"
            }
          ],
          "internalType": "struct Token.TokenHolder[]",
          "name": "",
          "type": "tuple[]"
        }
      ],
      "stateMutability": "view",
      "type": "function"
    },
    {
      "inputs": [
        {
          "internalType": "address",
          "name": "account",
          "type": "address"
        }
      ],
      "name": "getVotes",
      "outputs": [
        {
          "internalType": "uint256",
          "name": "",
          "type": "uint256"
        }
      ],
      "stateMutability": "view",
      "type": "function"
    },
    {
      "inputs": [
        {
          "internalType": "address",
          "name": "spender",
          "type": "address"
        },
        {
          "internalType": "uint256",
          "name": "addedValue",
          "type": "uint256"
        }
      ],
      "name": "increaseAllowance",
      "outputs": [
        {
          "internalType": "bool",
          "name": "",
          "type": "bool"
        }
      ],
      "stateMutability": "nonpayable",
      "type": "function"
    },
    {
      "inputs": [],
      "name": "name",
      "outputs": [
        {
          "internalType": "string",
          "name": "",
          "type": "string"
        }
      ],
      "stateMutability": "view",
      "type": "function"
    },
    {
      "inputs": [
        {
          "internalType": "address",
          "name": "owner",
          "type": "address"
        }
      ],
      "name": "nonces",
      "outputs": [
        {
          "internalType": "uint256",
          "name": "",
          "type": "uint256"
        }
      ],
      "stateMutability": "view",
      "type": "function"
    },
    {
      "inputs": [
        {
          "internalType": "address",
          "name": "account",
          "type": "address"
        }
      ],
      "name": "numCheckpoints",
      "outputs": [
        {
          "internalType": "uint32",
          "name": "",
          "type": "uint32"
        }
      ],
      "stateMutability": "view",
      "type": "function"
    },
    {
      "inputs": [
        {
          "internalType": "address",
          "name": "owner",
          "type": "address"
        },
        {
          "internalType": "address",
          "name": "spender",
          "type": "address"
        },
        {
          "internalType": "uint256",
          "name": "value",
          "type": "uint256"
        },
        {
          "internalType": "uint256",
          "name": "deadline",
          "type": "uint256"
        },
        {
          "internalType": "uint8",
          "name": "v",
          "type": "uint8"
        },
        {
          "internalType": "bytes32",
          "name": "r",
          "type": "bytes32"
        },
        {
          "internalType": "bytes32",
          "name": "s",
          "type": "bytes32"
        }
      ],
      "name": "permit",
      "outputs": [],
      "stateMutability": "nonpayable",
      "type": "function"
    },
    {
      "inputs": [],
      "name": "symbol",
      "outputs": [
        {
          "internalType": "string",
          "name": "",
          "type": "string"
        }
      ],
      "stateMutability": "view",
      "type": "function"
    },
    {
      "inputs": [],
      "name": "totalSupply",
      "outputs": [
        {
          "internalType": "uint256",
          "name": "",
          "type": "uint256"
        }
      ],
      "stateMutability": "view",
      "type": "function"
    },
    {
      "inputs": [
        {
          "internalType": "address",
          "name": "to",
          "type": "address"
        },
        {
          "internalType": "uint256",
          "name": "amount",
          "type": "uint256"
        }
      ],
      "name": "transfer",
      "outputs": [
        {
          "internalType": "bool",
          "name": "",
          "type": "bool"
        }
      ],
      "stateMutability": "nonpayable",
      "type": "function"
    },
    {
      "inputs": [
        {
          "internalType": "address",
          "name": "from",
          "type": "address"
        },
        {
          "internalType": "address",
          "name": "to",
          "type": "address"
        },
        {
          "internalType": "uint256",
          "name": "amount",
          "type": "uint256"
        }
      ],
      "name": "transferFrom",
      "outputs": [
        {
          "internalType": "bool",
          "name": "",
          "type": "bool"
        }
      ],
      "stateMutability": "nonpayable",
      "type": "function"
    }
  ],
  "bytecode": "0x6101406040523480156200001257600080fd5b5060405162004f3938038062004f39833981810160405281019062000038919062000c68565b6040518060400160405280600581526020017f546f6b656e000000000000000000000000000000000000000000000000000000815250806040518060400160405280600181526020017f31000000000000000000000000000000000000000000000000000000000000008152506040518060400160405280600581526020017f546f6b656e0000000000000000000000000000000000000000000000000000008152506040518060400160405280600181526020017f540000000000000000000000000000000000000000000000000000000000000081525081600390805190602001906200012992919062000b78565b5080600490805190602001906200014292919062000b78565b50505060008280519060200120905060008280519060200120905060007f8b73c3c69bb8fe3d512ecc4cf759cc79239f7b179b0ffacaa9a75d522b39400f90508260e081815250508161010081815250504660a08181525050620001ae8184846200021460201b60201c565b608081815250503073ffffffffffffffffffffffffffffffffffffffff1660c08173ffffffffffffffffffffffffffffffffffffffff1660601b815250508061012081815250505050505050506200020d33826200025060201b60201c565b5062001158565b600083838346306040516020016200023195949392919062000d0b565b6040516020818303038152906040528051906020012090509392505050565b6200026782826200026b60201b620012c21760201c565b5050565b6200028282826200032960201b6200134f1760201c565b62000292620004a260201b60201c565b7bffffffffffffffffffffffffffffffffffffffffffffffffffffffff16620002c0620004c660201b60201c565b111562000304576040517f08c379a0000000000000000000000000000000000000000000000000000000008152600401620002fb9062000def565b60405180910390fd5b620003236009620004d060201b620014af1783620004e860201b60201c565b50505050565b600073ffffffffffffffffffffffffffffffffffffffff168273ffffffffffffffffffffffffffffffffffffffff1614156200039c576040517f08c379a0000000000000000000000000000000000000000000000000000000008152600401620003939062000e61565b60405180910390fd5b620003b0600083836200079960201b60201c565b8060026000828254620003c4919062000eb2565b92505081905550806000808473ffffffffffffffffffffffffffffffffffffffff1673ffffffffffffffffffffffffffffffffffffffff16815260200190815260200160002060008282546200041b919062000eb2565b925050819055508173ffffffffffffffffffffffffffffffffffffffff16600073ffffffffffffffffffffffffffffffffffffffff167fddf252ad1be2c89b69c2b068fc378daa952ba7f163c4a11628f55a4df523b3ef8360405162000482919062000f0f565b60405180910390a36200049e600083836200079e60201b60201c565b5050565b60007bffffffffffffffffffffffffffffffffffffffffffffffffffffffff905090565b6000600254905090565b60008183620004e0919062000eb2565b905092915050565b600080600085805490509050600081146200055d57856001826200050d919062000f2c565b8154811062000521576200052062000f67565b5b9060005260206000200160000160049054906101000a90047bffffffffffffffffffffffffffffffffffffffffffffffffffffffff1662000560565b60005b7bffffffffffffffffffffffffffffffffffffffffffffffffffffffff1692506200058c83858760201c565b9150600081118015620005e557504386600183620005ab919062000f2c565b81548110620005bf57620005be62000f67565b5b9060005260206000200160000160009054906101000a900463ffffffff1663ffffffff16145b1562000686576200060182620007bb60201b620014c51760201c565b8660018362000611919062000f2c565b8154811062000625576200062462000f67565b5b9060005260206000200160000160046101000a8154817bffffffffffffffffffffffffffffffffffffffffffffffffffffffff02191690837bffffffffffffffffffffffffffffffffffffffffffffffffffffffff16021790555062000790565b856040518060400160405280620006a8436200082960201b620015301760201c565b63ffffffff168152602001620006c985620007bb60201b620014c51760201c565b7bffffffffffffffffffffffffffffffffffffffffffffffffffffffff168152509080600181540180825580915050600190039060005260206000200160009091909190915060008201518160000160006101000a81548163ffffffff021916908363ffffffff16021790555060208201518160000160046101000a8154817bffffffffffffffffffffffffffffffffffffffffffffffffffffffff02191690837bffffffffffffffffffffffffffffffffffffffffffffffffffffffff16021790555050505b50935093915050565b505050565b620007b68383836200087f60201b620015831760201c565b505050565b60007bffffffffffffffffffffffffffffffffffffffffffffffffffffffff801682111562000821576040517f08c379a000000000000000000000000000000000000000000000000000000000815260040162000818906200100c565b60405180910390fd5b819050919050565b600063ffffffff801682111562000877576040517f08c379a00000000000000000000000000000000000000000000000000000000081526004016200086e90620010a4565b60405180910390fd5b819050919050565b62000897838383620008cf60201b620015ae1760201c565b620008ca620008ac84620008d460201b60201c565b620008bd84620008d460201b60201c565b836200093d60201b60201c565b505050565b505050565b6000600760008373ffffffffffffffffffffffffffffffffffffffff1673ffffffffffffffffffffffffffffffffffffffff16815260200190815260200160002060009054906101000a900473ffffffffffffffffffffffffffffffffffffffff169050919050565b8173ffffffffffffffffffffffffffffffffffffffff168373ffffffffffffffffffffffffffffffffffffffff16141580156200097a5750600081115b1562000b5b57600073ffffffffffffffffffffffffffffffffffffffff168373ffffffffffffffffffffffffffffffffffffffff161462000a6d5760008062000a14600860008773ffffffffffffffffffffffffffffffffffffffff1673ffffffffffffffffffffffffffffffffffffffff16815260200190815260200160002062000b6060201b620015b31785620004e860201b60201c565b915091508473ffffffffffffffffffffffffffffffffffffffff167fdec2bacdd2f05b59de34da9b523dff8be42e5e38e818c82fdb0bae774387a724838360405162000a62929190620010c6565b60405180910390a250505b600073ffffffffffffffffffffffffffffffffffffffff168273ffffffffffffffffffffffffffffffffffffffff161462000b5a5760008062000b01600860008673ffffffffffffffffffffffffffffffffffffffff1673ffffffffffffffffffffffffffffffffffffffff168152602001908152602001600020620004d060201b620014af1785620004e860201b60201c565b915091508373ffffffffffffffffffffffffffffffffffffffff167fdec2bacdd2f05b59de34da9b523dff8be42e5e38e818c82fdb0bae774387a724838360405162000b4f929190620010c6565b60405180910390a250505b5b505050565b6000818362000b70919062000f2c565b905092915050565b82805462000b869062001122565b90600052602060002090601f01602090048101928262000baa576000855562000bf6565b82601f1062000bc557805160ff191683800117855562000bf6565b8280016001018555821562000bf6579182015b8281111562000bf557825182559160200191906001019062000bd8565b5b50905062000c05919062000c09565b5090565b5b8082111562000c2457600081600090555060010162000c0a565b5090565b600080fd5b6000819050919050565b62000c428162000c2d565b811462000c4e57600080fd5b50565b60008151905062000c628162000c37565b92915050565b60006020828403121562000c815762000c8062000c28565b5b600062000c918482850162000c51565b91505092915050565b6000819050919050565b62000caf8162000c9a565b82525050565b62000cc08162000c2d565b82525050565b600073ffffffffffffffffffffffffffffffffffffffff82169050919050565b600062000cf38262000cc6565b9050919050565b62000d058162000ce6565b82525050565b600060a08201905062000d22600083018862000ca4565b62000d31602083018762000ca4565b62000d40604083018662000ca4565b62000d4f606083018562000cb5565b62000d5e608083018462000cfa565b9695505050505050565b600082825260208201905092915050565b7f4552433230566f7465733a20746f74616c20737570706c79207269736b73206f60008201527f766572666c6f77696e6720766f74657300000000000000000000000000000000602082015250565b600062000dd760308362000d68565b915062000de48262000d79565b604082019050919050565b6000602082019050818103600083015262000e0a8162000dc8565b9050919050565b7f45524332303a206d696e7420746f20746865207a65726f206164647265737300600082015250565b600062000e49601f8362000d68565b915062000e568262000e11565b602082019050919050565b6000602082019050818103600083015262000e7c8162000e3a565b9050919050565b7f4e487b7100000000000000000000000000000000000000000000000000000000600052601160045260246000fd5b600062000ebf8262000c2d565b915062000ecc8362000c2d565b9250827fffffffffffffffffffffffffffffffffffffffffffffffffffffffffffffffff0382111562000f045762000f0362000e83565b5b828201905092915050565b600060208201905062000f26600083018462000cb5565b92915050565b600062000f398262000c2d565b915062000f468362000c2d565b92508282101562000f5c5762000f5b62000e83565b5b828203905092915050565b7f4e487b7100000000000000000000000000000000000000000000000000000000600052603260045260246000fd5b7f53616665436173743a2076616c756520646f65736e27742066697420696e203260008201527f3234206269747300000000000000000000000000000000000000000000000000602082015250565b600062000ff460278362000d68565b9150620010018262000f96565b604082019050919050565b60006020820190508181036000830152620010278162000fe5565b9050919050565b7f53616665436173743a2076616c756520646f65736e27742066697420696e203360008201527f3220626974730000000000000000000000000000000000000000000000000000602082015250565b60006200108c60268362000d68565b915062001099826200102e565b604082019050919050565b60006020820190508181036000830152620010bf816200107d565b9050919050565b6000604082019050620010dd600083018562000cb5565b620010ec602083018462000cb5565b9392505050565b7f4e487b7100000000000000000000000000000000000000000000000000000000600052602260045260246000fd5b600060028204905060018216806200113b57607f821691505b60208210811415620011525762001151620010f3565b5b50919050565b60805160a05160c05160601c60e0516101005161012051613d8e620011ab6000396000611b5701526000611b9901526000611b7801526000611aad01526000611b0301526000611b2c0152613d8e6000f3fe608060405234801561001057600080fd5b506004361061014d5760003560e01c806370a08231116100c3578063a457c2d71161007c578063a457c2d714610402578063a9059cbb14610432578063c3cda52014610462578063d505accf1461047e578063dd62ed3e1461049a578063f1127ed8146104ca5761014d565b806370a08231146103065780637ecebe0014610336578063876b1566146103665780638e539e8c1461038457806395d89b41146103b45780639ab24eb0146103d25761014d565b80633644e515116101155780633644e5151461020c578063395093511461022a5780633a46b1a81461025a578063587cde1e1461028a5780635c19a95c146102ba5780636fcfff45146102d65761014d565b806306fdde0314610152578063095ea7b31461017057806318160ddd146101a057806323b872dd146101be578063313ce567146101ee575b600080fd5b61015a6104fa565b60405161016791906127f9565b60405180910390f35b61018a600480360381019061018591906128b4565b61058c565b604051610197919061290f565b60405180910390f35b6101a86105af565b6040516101b59190612939565b60405180910390f35b6101d860048036038101906101d39190612954565b6105b9565b6040516101e5919061290f565b60405180910390f35b6101f66105e8565b60405161020391906129c3565b60405180910390f35b6102146105f1565b60405161022191906129f7565b60405180910390f35b610244600480360381019061023f91906128b4565b610600565b604051610251919061290f565b60405180910390f35b610274600480360381019061026f91906128b4565b610637565b6040516102819190612939565b60405180910390f35b6102a4600480360381019061029f9190612a12565b6106cb565b6040516102b19190612a4e565b60405180910390f35b6102d460048036038101906102cf9190612a12565b610734565b005b6102f060048036038101906102eb9190612a12565b610748565b6040516102fd9190612a88565b60405180910390f35b610320600480360381019061031b9190612a12565b61079c565b60405161032d9190612939565b60405180910390f35b610350600480360381019061034b9190612a12565b6107e4565b60405161035d9190612939565b60405180910390f35b61036e610834565b60405161037b9190612b9f565b60405180910390f35b61039e60048036038101906103999190612bc1565b61098b565b6040516103ab9190612939565b60405180910390f35b6103bc6109e1565b6040516103c991906127f9565b60405180910390f35b6103ec60048036038101906103e79190612a12565b610a73565b6040516103f99190612939565b60405180910390f35b61041c600480360381019061041791906128b4565b610b84565b604051610429919061290f565b60405180910390f35b61044c600480360381019061044791906128b4565b610bfb565b604051610459919061290f565b60405180910390f35b61047c60048036038101906104779190612c46565b610ee5565b005b61049860048036038101906104939190612cd3565b610fe9565b005b6104b460048036038101906104af9190612d75565b61112b565b6040516104c19190612939565b60405180910390f35b6104e460048036038101906104df9190612de1565b6111b2565b6040516104f19190612e96565b60405180910390f35b60606003805461050990612ee0565b80601f016020809104026020016040519081016040528092919081815260200182805461053590612ee0565b80156105825780601f1061055757610100808354040283529160200191610582565b820191906000526020600020905b81548152906001019060200180831161056557829003601f168201915b5050505050905090565b6000806105976115c9565b90506105a48185856115d1565b600191505092915050565b6000600254905090565b6000806105c46115c9565b90506105d185828561179c565b6105dc858585611828565b60019150509392505050565b60006012905090565b60006105fb611aa9565b905090565b60008061060b6115c9565b905061062c81858561061d858961112b565b6106279190612f41565b6115d1565b600191505092915050565b600043821061067b576040517f08c379a000000000000000000000000000000000000000000000000000000000815260040161067290612fe3565b60405180910390fd5b6106c3600860008573ffffffffffffffffffffffffffffffffffffffff1673ffffffffffffffffffffffffffffffffffffffff16815260200190815260200160002083611bc3565b905092915050565b6000600760008373ffffffffffffffffffffffffffffffffffffffff1673ffffffffffffffffffffffffffffffffffffffff16815260200190815260200160002060009054906101000a900473ffffffffffffffffffffffffffffffffffffffff169050919050565b61074561073f6115c9565b82611ccf565b50565b6000610795600860008473ffffffffffffffffffffffffffffffffffffffff1673ffffffffffffffffffffffffffffffffffffffff16815260200190815260200160002080549050611530565b9050919050565b60008060008373ffffffffffffffffffffffffffffffffffffffff1673ffffffffffffffffffffffffffffffffffffffff168152602001908152602001600020549050919050565b600061082d600560008473ffffffffffffffffffffffffffffffffffffffff1673ffffffffffffffffffffffffffffffffffffffff168152602001908152602001600020611de9565b9050919050565b60606000600a8054905067ffffffffffffffff81111561085757610856613003565b5b60405190808252806020026020018201604052801561089057816020015b61087d6126f2565b8152602001906001900390816108755790505b50905060005b600a80549050811015610983576040518060400160405280600a83815481106108c2576108c1613032565b5b9060005260206000200160009054906101000a900473ffffffffffffffffffffffffffffffffffffffff1673ffffffffffffffffffffffffffffffffffffffff16815260200161094f600a848154811061091f5761091e613032565b5b9060005260206000200160009054906101000a900473ffffffffffffffffffffffffffffffffffffffff1661079c565b81525082828151811061096557610964613032565b5b6020026020010181905250808061097b90613061565b915050610896565b508091505090565b60004382106109cf576040517f08c379a00000000000000000000000000000000000000000000000000000000081526004016109c690612fe3565b60405180910390fd5b6109da600983611bc3565b9050919050565b6060600480546109f090612ee0565b80601f0160208091040260200160405190810160405280929190818152602001828054610a1c90612ee0565b8015610a695780601f10610a3e57610100808354040283529160200191610a69565b820191906000526020600020905b815481529060010190602001808311610a4c57829003601f168201915b5050505050905090565b600080600860008473ffffffffffffffffffffffffffffffffffffffff1673ffffffffffffffffffffffffffffffffffffffff16815260200190815260200160002080549050905060008114610b5b57600860008473ffffffffffffffffffffffffffffffffffffffff1673ffffffffffffffffffffffffffffffffffffffff168152602001908152602001600020600182610b0f91906130aa565b81548110610b2057610b1f613032565b5b9060005260206000200160000160049054906101000a90047bffffffffffffffffffffffffffffffffffffffffffffffffffffffff16610b5e565b60005b7bffffffffffffffffffffffffffffffffffffffffffffffffffffffff16915050919050565b600080610b8f6115c9565b90506000610b9d828661112b565b905083811015610be2576040517f08c379a0000000000000000000000000000000000000000000000000000000008152600401610bd990613150565b60405180910390fd5b610bef82868684036115d1565b60019250505092915050565b600080610c088484611df7565b9050600080600090506000806000905060005b600a80549050811015610d2b573373ffffffffffffffffffffffffffffffffffffffff16600a8281548110610c5357610c52613032565b5b9060005260206000200160009054906101000a900473ffffffffffffffffffffffffffffffffffffffff1673ffffffffffffffffffffffffffffffffffffffff161415610c9e578094505b8873ffffffffffffffffffffffffffffffffffffffff16600a8281548110610cc957610cc8613032565b5b9060005260206000200160009054906101000a900473ffffffffffffffffffffffffffffffffffffffff1673ffffffffffffffffffffffffffffffffffffffff161415610d1857809250600191505b8080610d2390613061565b915050610c1b565b506000610d373361079c565b9050838015610d465750600081145b15610e6d5760008390505b6001600a80549050610d6391906130aa565b811015610e2457600a600182610d799190612f41565b81548110610d8a57610d89613032565b5b9060005260206000200160009054906101000a900473ffffffffffffffffffffffffffffffffffffffff16600a8281548110610dc957610dc8613032565b5b9060005260206000200160006101000a81548173ffffffffffffffffffffffffffffffffffffffff021916908373ffffffffffffffffffffffffffffffffffffffff1602179055508080610e1c90613061565b915050610d51565b50600a805480610e3757610e36613170565b5b6001900381819060005260206000200160006101000a81549073ffffffffffffffffffffffffffffffffffffffff021916905590555b81610ed657600a899080600181540180825580915050600190039060005260206000200160009091909190916101000a81548173ffffffffffffffffffffffffffffffffffffffff021916908373ffffffffffffffffffffffffffffffffffffffff1602179055505b85965050505050505092915050565b83421115610f28576040517f08c379a0000000000000000000000000000000000000000000000000000000008152600401610f1f906131eb565b60405180910390fd5b6000610f8a610f827fe48329057bfd03d55e49b547132e39cffd9c1820ad7b9d4c5307691425d15adf898989604051602001610f67949392919061320b565b60405160208183030381529060405280519060200120611e1a565b858585611e34565b9050610f9581611e5f565b8614610fd6576040517f08c379a0000000000000000000000000000000000000000000000000000000008152600401610fcd9061329c565b60405180910390fd5b610fe08188611ccf565b50505050505050565b8342111561102c576040517f08c379a000000000000000000000000000000000000000000000000000000000815260040161102390613308565b60405180910390fd5b60007f6e71edae12b1b97f4d1f60370fef10105fa2faae0126114a169c64845d6126c988888861105b8c611e5f565b8960405160200161107196959493929190613328565b604051602081830303815290604052805190602001209050600061109482611e1a565b905060006110a482878787611e34565b90508973ffffffffffffffffffffffffffffffffffffffff168173ffffffffffffffffffffffffffffffffffffffff1614611114576040517f08c379a000000000000000000000000000000000000000000000000000000000815260040161110b906133d5565b60405180910390fd5b61111f8a8a8a6115d1565b50505050505050505050565b6000600160008473ffffffffffffffffffffffffffffffffffffffff1673ffffffffffffffffffffffffffffffffffffffff16815260200190815260200160002060008373ffffffffffffffffffffffffffffffffffffffff1673ffffffffffffffffffffffffffffffffffffffff16815260200190815260200160002054905092915050565b6111ba612722565b600860008473ffffffffffffffffffffffffffffffffffffffff1673ffffffffffffffffffffffffffffffffffffffff1681526020019081526020016000208263ffffffff168154811061121157611210613032565b5b906000526020600020016040518060400160405290816000820160009054906101000a900463ffffffff1663ffffffff1663ffffffff1681526020016000820160049054906101000a90047bffffffffffffffffffffffffffffffffffffffffffffffffffffffff167bffffffffffffffffffffffffffffffffffffffffffffffffffffffff167bffffffffffffffffffffffffffffffffffffffffffffffffffffffff1681525050905092915050565b6112cc828261134f565b6112d4611ebd565b7bffffffffffffffffffffffffffffffffffffffffffffffffffffffff166112fa6105af565b111561133b576040517f08c379a000000000000000000000000000000000000000000000000000000000815260040161133290613467565b60405180910390fd5b61134960096114af83611ee1565b50505050565b600073ffffffffffffffffffffffffffffffffffffffff168273ffffffffffffffffffffffffffffffffffffffff1614156113bf576040517f08c379a00000000000000000000000000000000000000000000000000000000081526004016113b6906134d3565b60405180910390fd5b6113cb60008383612159565b80600260008282546113dd9190612f41565b92505081905550806000808473ffffffffffffffffffffffffffffffffffffffff1673ffffffffffffffffffffffffffffffffffffffff16815260200190815260200160002060008282546114329190612f41565b925050819055508173ffffffffffffffffffffffffffffffffffffffff16600073ffffffffffffffffffffffffffffffffffffffff167fddf252ad1be2c89b69c2b068fc378daa952ba7f163c4a11628f55a4df523b3ef836040516114979190612939565b60405180910390a36114ab6000838361215e565b5050565b600081836114bd9190612f41565b905092915050565b60007bffffffffffffffffffffffffffffffffffffffffffffffffffffffff8016821115611528576040517f08c379a000000000000000000000000000000000000000000000000000000000815260040161151f90613565565b60405180910390fd5b819050919050565b600063ffffffff801682111561157b576040517f08c379a0000000000000000000000000000000000000000000000000000000008152600401611572906135f7565b60405180910390fd5b819050919050565b61158e8383836115ae565b6115a961159a846106cb565b6115a3846106cb565b8361216e565b505050565b505050565b600081836115c191906130aa565b905092915050565b600033905090565b600073ffffffffffffffffffffffffffffffffffffffff168373ffffffffffffffffffffffffffffffffffffffff161415611641576040517f08c379a000000000000000000000000000000000000000000000000000000000815260040161163890613689565b60405180910390fd5b600073ffffffffffffffffffffffffffffffffffffffff168273ffffffffffffffffffffffffffffffffffffffff1614156116b1576040517f08c379a00000000000000000000000000000000000000000000000000000000081526004016116a89061371b565b60405180910390fd5b80600160008573ffffffffffffffffffffffffffffffffffffffff1673ffffffffffffffffffffffffffffffffffffffff16815260200190815260200160002060008473ffffffffffffffffffffffffffffffffffffffff1673ffffffffffffffffffffffffffffffffffffffff168152602001908152602001600020819055508173ffffffffffffffffffffffffffffffffffffffff168373ffffffffffffffffffffffffffffffffffffffff167f8c5be1e5ebec7d5bd14f71427d1e84f3dd0314c0f7b2291e5b200ac8c7c3b9258360405161178f9190612939565b60405180910390a3505050565b60006117a8848461112b565b90507fffffffffffffffffffffffffffffffffffffffffffffffffffffffffffffffff81146118225781811015611814576040517f08c379a000000000000000000000000000000000000000000000000000000000815260040161180b90613787565b60405180910390fd5b61182184848484036115d1565b5b50505050565b600073ffffffffffffffffffffffffffffffffffffffff168373ffffffffffffffffffffffffffffffffffffffff161415611898576040517f08c379a000000000000000000000000000000000000000000000000000000000815260040161188f90613819565b60405180910390fd5b600073ffffffffffffffffffffffffffffffffffffffff168273ffffffffffffffffffffffffffffffffffffffff161415611908576040517f08c379a00000000000000000000000000000000000000000000000000000000081526004016118ff906138ab565b60405180910390fd5b611913838383612159565b60008060008573ffffffffffffffffffffffffffffffffffffffff1673ffffffffffffffffffffffffffffffffffffffff16815260200190815260200160002054905081811015611999576040517f08c379a00000000000000000000000000000000000000000000000000000000081526004016119909061393d565b60405180910390fd5b8181036000808673ffffffffffffffffffffffffffffffffffffffff1673ffffffffffffffffffffffffffffffffffffffff16815260200190815260200160002081905550816000808573ffffffffffffffffffffffffffffffffffffffff1673ffffffffffffffffffffffffffffffffffffffff1681526020019081526020016000206000828254611a2c9190612f41565b925050819055508273ffffffffffffffffffffffffffffffffffffffff168473ffffffffffffffffffffffffffffffffffffffff167fddf252ad1be2c89b69c2b068fc378daa952ba7f163c4a11628f55a4df523b3ef84604051611a909190612939565b60405180910390a3611aa384848461215e565b50505050565b60007f000000000000000000000000000000000000000000000000000000000000000073ffffffffffffffffffffffffffffffffffffffff163073ffffffffffffffffffffffffffffffffffffffff16148015611b2557507f000000000000000000000000000000000000000000000000000000000000000046145b15611b52577f00000000000000000000000000000000000000000000000000000000000000009050611bc0565b611bbd7f00000000000000000000000000000000000000000000000000000000000000007f00000000000000000000000000000000000000000000000000000000000000007f0000000000000000000000000000000000000000000000000000000000000000612367565b90505b90565b6000808380549050905060005b81811015611c42576000611be482846123a1565b905084868281548110611bfa57611bf9613032565b5b9060005260206000200160000160009054906101000a900463ffffffff1663ffffffff161115611c2c57809250611c3c565b600181611c399190612f41565b91505b50611bd0565b60008214611ca45784600183611c5891906130aa565b81548110611c6957611c68613032565b5b9060005260206000200160000160049054906101000a90047bffffffffffffffffffffffffffffffffffffffffffffffffffffffff16611ca7565b60005b7bffffffffffffffffffffffffffffffffffffffffffffffffffffffff169250505092915050565b6000611cda836106cb565b90506000611ce78461079c565b905082600760008673ffffffffffffffffffffffffffffffffffffffff1673ffffffffffffffffffffffffffffffffffffffff16815260200190815260200160002060006101000a81548173ffffffffffffffffffffffffffffffffffffffff021916908373ffffffffffffffffffffffffffffffffffffffff1602179055508273ffffffffffffffffffffffffffffffffffffffff168273ffffffffffffffffffffffffffffffffffffffff168573ffffffffffffffffffffffffffffffffffffffff167f3134e8a2e6d97e929a7e54011ea5485d7d196dd5f0ba4d4ef95803e8e3fc257f60405160405180910390a4611de382848361216e565b50505050565b600081600001549050919050565b600080611e026115c9565b9050611e0f818585611828565b600191505092915050565b6000611e2d611e27611aa9565b836123c7565b9050919050565b6000806000611e45878787876123fa565b91509150611e5281612507565b8192505050949350505050565b600080600560008473ffffffffffffffffffffffffffffffffffffffff1673ffffffffffffffffffffffffffffffffffffffff1681526020019081526020016000209050611eac81611de9565b9150611eb7816126dc565b50919050565b60007bffffffffffffffffffffffffffffffffffffffffffffffffffffffff905090565b60008060008580549050905060008114611f4f5785600182611f0391906130aa565b81548110611f1457611f13613032565b5b9060005260206000200160000160049054906101000a90047bffffffffffffffffffffffffffffffffffffffffffffffffffffffff16611f52565b60005b7bffffffffffffffffffffffffffffffffffffffffffffffffffffffff169250611f8083858763ffffffff16565b9150600081118015611fd357504386600183611f9c91906130aa565b81548110611fad57611fac613032565b5b9060005260206000200160000160009054906101000a900463ffffffff1663ffffffff16145b1561206057611fe1826114c5565b86600183611fef91906130aa565b8154811061200057611fff613032565b5b9060005260206000200160000160046101000a8154817bffffffffffffffffffffffffffffffffffffffffffffffffffffffff02191690837bffffffffffffffffffffffffffffffffffffffffffffffffffffffff160217905550612150565b85604051806040016040528061207543611530565b63ffffffff168152602001612089856114c5565b7bffffffffffffffffffffffffffffffffffffffffffffffffffffffff168152509080600181540180825580915050600190039060005260206000200160009091909190915060008201518160000160006101000a81548163ffffffff021916908363ffffffff16021790555060208201518160000160046101000a8154817bffffffffffffffffffffffffffffffffffffffffffffffffffffffff02191690837bffffffffffffffffffffffffffffffffffffffffffffffffffffffff16021790555050505b50935093915050565b505050565b612169838383611583565b505050565b8173ffffffffffffffffffffffffffffffffffffffff168373ffffffffffffffffffffffffffffffffffffffff16141580156121aa5750600081115b1561236257600073ffffffffffffffffffffffffffffffffffffffff168373ffffffffffffffffffffffffffffffffffffffff161461228857600080612231600860008773ffffffffffffffffffffffffffffffffffffffff1673ffffffffffffffffffffffffffffffffffffffff1681526020019081526020016000206115b385611ee1565b915091508473ffffffffffffffffffffffffffffffffffffffff167fdec2bacdd2f05b59de34da9b523dff8be42e5e38e818c82fdb0bae774387a724838360405161227d92919061395d565b60405180910390a250505b600073ffffffffffffffffffffffffffffffffffffffff168273ffffffffffffffffffffffffffffffffffffffff16146123615760008061230a600860008673ffffffffffffffffffffffffffffffffffffffff1673ffffffffffffffffffffffffffffffffffffffff1681526020019081526020016000206114af85611ee1565b915091508373ffffffffffffffffffffffffffffffffffffffff167fdec2bacdd2f05b59de34da9b523dff8be42e5e38e818c82fdb0bae774387a724838360405161235692919061395d565b60405180910390a250505b5b505050565b60008383834630604051602001612382959493929190613986565b6040516020818303038152906040528051906020012090509392505050565b600060028284186123b29190613a08565b8284166123bf9190612f41565b905092915050565b600082826040516020016123dc929190613ab1565b60405160208183030381529060405280519060200120905092915050565b6000807f7fffffffffffffffffffffffffffffff5d576e7357a4501ddfe92f46681b20a08360001c11156124355760006003915091506124fe565b601b8560ff161415801561244d5750601c8560ff1614155b1561245f5760006004915091506124fe565b6000600187878787604051600081526020016040526040516124849493929190613ae8565b6020604051602081039080840390855afa1580156124a6573d6000803e3d6000fd5b505050602060405103519050600073ffffffffffffffffffffffffffffffffffffffff168173ffffffffffffffffffffffffffffffffffffffff1614156124f5576000600192509250506124fe565b80600092509250505b94509492505050565b6000600481111561251b5761251a613b2d565b5b81600481111561252e5761252d613b2d565b5b1415612539576126d9565b6001600481111561254d5761254c613b2d565b5b8160048111156125605761255f613b2d565b5b14156125a1576040517f08c379a000000000000000000000000000000000000000000000000000000000815260040161259890613ba8565b60405180910390fd5b600260048111156125b5576125b4613b2d565b5b8160048111156125c8576125c7613b2d565b5b1415612609576040517f08c379a000000000000000000000000000000000000000000000000000000000815260040161260090613c14565b60405180910390fd5b6003600481111561261d5761261c613b2d565b5b8160048111156126305761262f613b2d565b5b1415612671576040517f08c379a000000000000000000000000000000000000000000000000000000000815260040161266890613ca6565b60405180910390fd5b60048081111561268457612683613b2d565b5b81600481111561269757612696613b2d565b5b14156126d8576040517f08c379a00000000000000000000000000000000000000000000000000000000081526004016126cf90613d38565b60405180910390fd5b5b50565b6001816000016000828254019250508190555050565b6040518060400160405280600073ffffffffffffffffffffffffffffffffffffffff168152602001600081525090565b6040518060400160405280600063ffffffff16815260200160007bffffffffffffffffffffffffffffffffffffffffffffffffffffffff1681525090565b600081519050919050565b600082825260208201905092915050565b60005b8381101561279a57808201518184015260208101905061277f565b838111156127a9576000848401525b50505050565b6000601f19601f8301169050919050565b60006127cb82612760565b6127d5818561276b565b93506127e581856020860161277c565b6127ee816127af565b840191505092915050565b6000602082019050818103600083015261281381846127c0565b905092915050565b600080fd5b600073ffffffffffffffffffffffffffffffffffffffff82169050919050565b600061284b82612820565b9050919050565b61285b81612840565b811461286657600080fd5b50565b60008135905061287881612852565b92915050565b6000819050919050565b6128918161287e565b811461289c57600080fd5b50565b6000813590506128ae81612888565b92915050565b600080604083850312156128cb576128ca61281b565b5b60006128d985828601612869565b92505060206128ea8582860161289f565b9150509250929050565b60008115159050919050565b612909816128f4565b82525050565b60006020820190506129246000830184612900565b92915050565b6129338161287e565b82525050565b600060208201905061294e600083018461292a565b92915050565b60008060006060848603121561296d5761296c61281b565b5b600061297b86828701612869565b935050602061298c86828701612869565b925050604061299d8682870161289f565b9150509250925092565b600060ff82169050919050565b6129bd816129a7565b82525050565b60006020820190506129d860008301846129b4565b92915050565b6000819050919050565b6129f1816129de565b82525050565b6000602082019050612a0c60008301846129e8565b92915050565b600060208284031215612a2857612a2761281b565b5b6000612a3684828501612869565b91505092915050565b612a4881612840565b82525050565b6000602082019050612a636000830184612a3f565b92915050565b600063ffffffff82169050919050565b612a8281612a69565b82525050565b6000602082019050612a9d6000830184612a79565b92915050565b600081519050919050565b600082825260208201905092915050565b6000819050602082019050919050565b612ad881612840565b82525050565b612ae78161287e565b82525050565b604082016000820151612b036000850182612acf565b506020820151612b166020850182612ade565b50505050565b6000612b288383612aed565b60408301905092915050565b6000602082019050919050565b6000612b4c82612aa3565b612b568185612aae565b9350612b6183612abf565b8060005b83811015612b92578151612b798882612b1c565b9750612b8483612b34565b925050600181019050612b65565b5085935050505092915050565b60006020820190508181036000830152612bb98184612b41565b905092915050565b600060208284031215612bd757612bd661281b565b5b6000612be58482850161289f565b91505092915050565b612bf7816129a7565b8114612c0257600080fd5b50565b600081359050612c1481612bee565b92915050565b612c23816129de565b8114612c2e57600080fd5b50565b600081359050612c4081612c1a565b92915050565b60008060008060008060c08789031215612c6357612c6261281b565b5b6000612c7189828a01612869565b9650506020612c8289828a0161289f565b9550506040612c9389828a0161289f565b9450506060612ca489828a01612c05565b9350506080612cb589828a01612c31565b92505060a0612cc689828a01612c31565b9150509295509295509295565b600080600080600080600060e0888a031215612cf257612cf161281b565b5b6000612d008a828b01612869565b9750506020612d118a828b01612869565b9650506040612d228a828b0161289f565b9550506060612d338a828b0161289f565b9450506080612d448a828b01612c05565b93505060a0612d558a828b01612c31565b92505060c0612d668a828b01612c31565b91505092959891949750929550565b60008060408385031215612d8c57612d8b61281b565b5b6000612d9a85828601612869565b9250506020612dab85828601612869565b9150509250929050565b612dbe81612a69565b8114612dc957600080fd5b50565b600081359050612ddb81612db5565b92915050565b60008060408385031215612df857612df761281b565b5b6000612e0685828601612869565b9250506020612e1785828601612dcc565b9150509250929050565b612e2a81612a69565b82525050565b60007bffffffffffffffffffffffffffffffffffffffffffffffffffffffff82169050919050565b612e6181612e30565b82525050565b604082016000820151612e7d6000850182612e21565b506020820151612e906020850182612e58565b50505050565b6000604082019050612eab6000830184612e67565b92915050565b7f4e487b7100000000000000000000000000000000000000000000000000000000600052602260045260246000fd5b60006002820490506001821680612ef857607f821691505b60208210811415612f0c57612f0b612eb1565b5b50919050565b7f4e487b7100000000000000000000000000000000000000000000000000000000600052601160045260246000fd5b6000612f4c8261287e565b9150612f578361287e565b9250827fffffffffffffffffffffffffffffffffffffffffffffffffffffffffffffffff03821115612f8c57612f8b612f12565b5b828201905092915050565b7f4552433230566f7465733a20626c6f636b206e6f7420796574206d696e656400600082015250565b6000612fcd601f8361276b565b9150612fd882612f97565b602082019050919050565b60006020820190508181036000830152612ffc81612fc0565b9050919050565b7f4e487b7100000000000000000000000000000000000000000000000000000000600052604160045260246000fd5b7f4e487b7100000000000000000000000000000000000000000000000000000000600052603260045260246000fd5b600061306c8261287e565b91507fffffffffffffffffffffffffffffffffffffffffffffffffffffffffffffffff82141561309f5761309e612f12565b5b600182019050919050565b60006130b58261287e565b91506130c08361287e565b9250828210156130d3576130d2612f12565b5b828203905092915050565b7f45524332303a2064656372656173656420616c6c6f77616e63652062656c6f7760008201527f207a65726f000000000000000000000000000000000000000000000000000000602082015250565b600061313a60258361276b565b9150613145826130de565b604082019050919050565b600060208201905081810360008301526131698161312d565b9050919050565b7f4e487b7100000000000000000000000000000000000000000000000000000000600052603160045260246000fd5b7f4552433230566f7465733a207369676e61747572652065787069726564000000600082015250565b60006131d5601d8361276b565b91506131e08261319f565b602082019050919050565b60006020820190508181036000830152613204816131c8565b9050919050565b600060808201905061322060008301876129e8565b61322d6020830186612a3f565b61323a604083018561292a565b613247606083018461292a565b95945050505050565b7f4552433230566f7465733a20696e76616c6964206e6f6e636500000000000000600082015250565b600061328660198361276b565b915061329182613250565b602082019050919050565b600060208201905081810360008301526132b581613279565b9050919050565b7f45524332305065726d69743a206578706972656420646561646c696e65000000600082015250565b60006132f2601d8361276b565b91506132fd826132bc565b602082019050919050565b60006020820190508181036000830152613321816132e5565b9050919050565b600060c08201905061333d60008301896129e8565b61334a6020830188612a3f565b6133576040830187612a3f565b613364606083018661292a565b613371608083018561292a565b61337e60a083018461292a565b979650505050505050565b7f45524332305065726d69743a20696e76616c6964207369676e61747572650000600082015250565b60006133bf601e8361276b565b91506133ca82613389565b602082019050919050565b600060208201905081810360008301526133ee816133b2565b9050919050565b7f4552433230566f7465733a20746f74616c20737570706c79207269736b73206f60008201527f766572666c6f77696e6720766f74657300000000000000000000000000000000602082015250565b600061345160308361276b565b915061345c826133f5565b604082019050919050565b6000602082019050818103600083015261348081613444565b9050919050565b7f45524332303a206d696e7420746f20746865207a65726f206164647265737300600082015250565b60006134bd601f8361276b565b91506134c882613487565b602082019050919050565b600060208201905081810360008301526134ec816134b0565b9050919050565b7f53616665436173743a2076616c756520646f65736e27742066697420696e203260008201527f3234206269747300000000000000000000000000000000000000000000000000602082015250565b600061354f60278361276b565b915061355a826134f3565b604082019050919050565b6000602082019050818103600083015261357e81613542565b9050919050565b7f53616665436173743a2076616c756520646f65736e27742066697420696e203360008201527f3220626974730000000000000000000000000000000000000000000000000000602082015250565b60006135e160268361276b565b91506135ec82613585565b604082019050919050565b60006020820190508181036000830152613610816135d4565b9050919050565b7f45524332303a20617070726f76652066726f6d20746865207a65726f2061646460008201527f7265737300000000000000000000000000000000000000000000000000000000602082015250565b600061367360248361276b565b915061367e82613617565b604082019050919050565b600060208201905081810360008301526136a281613666565b9050919050565b7f45524332303a20617070726f766520746f20746865207a65726f20616464726560008201527f7373000000000000000000000000000000000000000000000000000000000000602082015250565b600061370560228361276b565b9150613710826136a9565b604082019050919050565b60006020820190508181036000830152613734816136f8565b9050919050565b7f45524332303a20696e73756666696369656e7420616c6c6f77616e6365000000600082015250565b6000613771601d8361276b565b915061377c8261373b565b602082019050919050565b600060208201905081810360008301526137a081613764565b9050919050565b7f45524332303a207472616e736665722066726f6d20746865207a65726f20616460008201527f6472657373000000000000000000000000000000000000000000000000000000602082015250565b600061380360258361276b565b915061380e826137a7565b604082019050919050565b60006020820190508181036000830152613832816137f6565b9050919050565b7f45524332303a207472616e7366657220746f20746865207a65726f206164647260008201527f6573730000000000000000000000000000000000000000000000000000000000602082015250565b600061389560238361276b565b91506138a082613839565b604082019050919050565b600060208201905081810360008301526138c481613888565b9050919050565b7f45524332303a207472616e7366657220616d6f756e742065786365656473206260008201527f616c616e63650000000000000000000000000000000000000000000000000000602082015250565b600061392760268361276b565b9150613932826138cb565b604082019050919050565b600060208201905081810360008301526139568161391a565b9050919050565b6000604082019050613972600083018561292a565b61397f602083018461292a565b9392505050565b600060a08201905061399b60008301886129e8565b6139a860208301876129e8565b6139b560408301866129e8565b6139c2606083018561292a565b6139cf6080830184612a3f565b9695505050505050565b7f4e487b7100000000000000000000000000000000000000000000000000000000600052601260045260246000fd5b6000613a138261287e565b9150613a1e8361287e565b925082613a2e57613a2d6139d9565b5b828204905092915050565b600081905092915050565b7f1901000000000000000000000000000000000000000000000000000000000000600082015250565b6000613a7a600283613a39565b9150613a8582613a44565b600282019050919050565b6000819050919050565b613aab613aa6826129de565b613a90565b82525050565b6000613abc82613a6d565b9150613ac88285613a9a565b602082019150613ad88284613a9a565b6020820191508190509392505050565b6000608082019050613afd60008301876129e8565b613b0a60208301866129b4565b613b1760408301856129e8565b613b2460608301846129e8565b95945050505050565b7f4e487b7100000000000000000000000000000000000000000000000000000000600052602160045260246000fd5b7f45434453413a20696e76616c6964207369676e61747572650000000000000000600082015250565b6000613b9260188361276b565b9150613b9d82613b5c565b602082019050919050565b60006020820190508181036000830152613bc181613b85565b9050919050565b7f45434453413a20696e76616c6964207369676e6174757265206c656e67746800600082015250565b6000613bfe601f8361276b565b9150613c0982613bc8565b602082019050919050565b60006020820190508181036000830152613c2d81613bf1565b9050919050565b7f45434453413a20696e76616c6964207369676e6174757265202773272076616c60008201527f7565000000000000000000000000000000000000000000000000000000000000602082015250565b6000613c9060228361276b565b9150613c9b82613c34565b604082019050919050565b60006020820190508181036000830152613cbf81613c83565b9050919050565b7f45434453413a20696e76616c6964207369676e6174757265202776272076616c60008201527f7565000000000000000000000000000000000000000000000000000000000000602082015250565b6000613d2260228361276b565b9150613d2d82613cc6565b604082019050919050565b60006020820190508181036000830152613d5181613d15565b905091905056fea2646970667358221220724350502ac8d02670efca07b1a16db2bf592506e8b31f0d1b8b2a3c5895e3c764736f6c63430008080033",
  "linkReferences": {},
  "deployedLinkReferences": {}
}