{
  "_format": "hh-sol-artifact-1",
  "contractName": "Token",
  "sourceName": "contracts/Token.sol",
  "abi": [
    {
      "inputs": [
        {
          "internalType": "uint256",
          "name": "_initialSupply",
          "type": "uint256"
        }
      ],
      "stateMutability": "nonpayable",
      "type": "constructor"
    },
    {
      "anonymous": false,
      "inputs": [
        {
          "indexed": true,
          "internalType": "address",
          "name": "owner",
          "type": "address"
        },
        {
          "indexed": true,
          "internalType": "address",
          "name": "spender",
          "type": "address"
        },
        {
          "indexed": false,
          "internalType": "uint256",
          "name": "value",
          "type": "uint256"
        }
      ],
      "name": "Approval",
      "type": "event"
    },
    {
      "anonymous": false,
      "inputs": [
        {
          "indexed": true,
          "internalType": "address",
          "name": "delegator",
          "type": "address"
        },
        {
          "indexed": true,
          "internalType": "address",
          "name": "fromDelegate",
          "type": "address"
        },
        {
          "indexed": true,
          "internalType": "address",
          "name": "toDelegate",
          "type": "address"
        }
      ],
      "name": "DelegateChanged",
      "type": "event"
    },
    {
      "anonymous": false,
      "inputs": [
        {
          "indexed": true,
          "internalType": "address",
          "name": "delegate",
          "type": "address"
        },
        {
          "indexed": false,
          "internalType": "uint256",
          "name": "previousBalance",
          "type": "uint256"
        },
        {
          "indexed": false,
          "internalType": "uint256",
          "name": "newBalance",
          "type": "uint256"
        }
      ],
      "name": "DelegateVotesChanged",
      "type": "event"
    },
    {
      "anonymous": false,
      "inputs": [
        {
          "indexed": true,
          "internalType": "address",
          "name": "from",
          "type": "address"
        },
        {
          "indexed": true,
          "internalType": "address",
          "name": "to",
          "type": "address"
        },
        {
          "indexed": false,
          "internalType": "uint256",
          "name": "value",
          "type": "uint256"
        }
      ],
      "name": "Transfer",
      "type": "event"
    },
    {
      "inputs": [],
      "name": "DOMAIN_SEPARATOR",
      "outputs": [
        {
          "internalType": "bytes32",
          "name": "",
          "type": "bytes32"
        }
      ],
      "stateMutability": "view",
      "type": "function"
    },
    {
      "inputs": [
        {
          "internalType": "address",
          "name": "owner",
          "type": "address"
        },
        {
          "internalType": "address",
          "name": "spender",
          "type": "address"
        }
      ],
      "name": "allowance",
      "outputs": [
        {
          "internalType": "uint256",
          "name": "",
          "type": "uint256"
        }
      ],
      "stateMutability": "view",
      "type": "function"
    },
    {
      "inputs": [
        {
          "internalType": "address",
          "name": "spender",
          "type": "address"
        },
        {
          "internalType": "uint256",
          "name": "amount",
          "type": "uint256"
        }
      ],
      "name": "approve",
      "outputs": [
        {
          "internalType": "bool",
          "name": "",
          "type": "bool"
        }
      ],
      "stateMutability": "nonpayable",
      "type": "function"
    },
    {
      "inputs": [
        {
          "internalType": "address",
          "name": "account",
          "type": "address"
        }
      ],
      "name": "balanceOf",
      "outputs": [
        {
          "internalType": "uint256",
          "name": "",
          "type": "uint256"
        }
      ],
      "stateMutability": "view",
      "type": "function"
    },
    {
      "inputs": [
        {
          "internalType": "address",
          "name": "account",
          "type": "address"
        },
        {
          "internalType": "uint32",
          "name": "pos",
          "type": "uint32"
        }
      ],
      "name": "checkpoints",
      "outputs": [
        {
          "components": [
            {
              "internalType": "uint32",
              "name": "fromBlock",
              "type": "uint32"
            },
            {
              "internalType": "uint224",
              "name": "votes",
              "type": "uint224"
            }
          ],
          "internalType": "struct ERC20Votes.Checkpoint",
          "name": "",
          "type": "tuple"
        }
      ],
      "stateMutability": "view",
      "type": "function"
    },
    {
      "inputs": [],
      "name": "decimals",
      "outputs": [
        {
          "internalType": "uint8",
          "name": "",
          "type": "uint8"
        }
      ],
      "stateMutability": "view",
      "type": "function"
    },
    {
      "inputs": [
        {
          "internalType": "address",
          "name": "spender",
          "type": "address"
        },
        {
          "internalType": "uint256",
          "name": "subtractedValue",
          "type": "uint256"
        }
      ],
      "name": "decreaseAllowance",
      "outputs": [
        {
          "internalType": "bool",
          "name": "",
          "type": "bool"
        }
      ],
      "stateMutability": "nonpayable",
      "type": "function"
    },
    {
      "inputs": [
        {
          "internalType": "address",
          "name": "delegatee",
          "type": "address"
        }
      ],
      "name": "delegate",
      "outputs": [],
      "stateMutability": "nonpayable",
      "type": "function"
    },
    {
      "inputs": [
        {
          "internalType": "address",
          "name": "delegatee",
          "type": "address"
        },
        {
          "internalType": "uint256",
          "name": "nonce",
          "type": "uint256"
        },
        {
          "internalType": "uint256",
          "name": "expiry",
          "type": "uint256"
        },
        {
          "internalType": "uint8",
          "name": "v",
          "type": "uint8"
        },
        {
          "internalType": "bytes32",
          "name": "r",
          "type": "bytes32"
        },
        {
          "internalType": "bytes32",
          "name": "s",
          "type": "bytes32"
        }
      ],
      "name": "delegateBySig",
      "outputs": [],
      "stateMutability": "nonpayable",
      "type": "function"
    },
    {
      "inputs": [
        {
          "internalType": "address",
          "name": "account",
          "type": "address"
        }
      ],
      "name": "delegates",
      "outputs": [
        {
          "internalType": "address",
          "name": "",
          "type": "address"
        }
      ],
      "stateMutability": "view",
      "type": "function"
    },
    {
      "inputs": [
        {
          "internalType": "uint256",
          "name": "blockNumber",
          "type": "uint256"
        }
      ],
      "name": "getPastTotalSupply",
      "outputs": [
        {
          "internalType": "uint256",
          "name": "",
          "type": "uint256"
        }
      ],
      "stateMutability": "view",
      "type": "function"
    },
    {
      "inputs": [
        {
          "internalType": "address",
          "name": "account",
          "type": "address"
        },
        {
          "internalType": "uint256",
          "name": "blockNumber",
          "type": "uint256"
        }
      ],
      "name": "getPastVotes",
      "outputs": [
        {
          "internalType": "uint256",
          "name": "",
          "type": "uint256"
        }
      ],
      "stateMutability": "view",
      "type": "function"
    },
    {
      "inputs": [],
      "name": "getTokenHolders",
      "outputs": [
        {
          "components": [
            {
              "internalType": "address",
              "name": "addr",
              "type": "address"
            },
            {
              "internalType": "uint256",
              "name": "tokens",
              "type": "uint256"
            }
          ],
          "internalType": "struct Token.TokenHolder[]",
          "name": "",
          "type": "tuple[]"
        }
      ],
      "stateMutability": "view",
      "type": "function"
    },
    {
      "inputs": [
        {
          "internalType": "address",
          "name": "account",
          "type": "address"
        }
      ],
      "name": "getVotes",
      "outputs": [
        {
          "internalType": "uint256",
          "name": "",
          "type": "uint256"
        }
      ],
      "stateMutability": "view",
      "type": "function"
    },
    {
      "inputs": [
        {
          "internalType": "address",
          "name": "spender",
          "type": "address"
        },
        {
          "internalType": "uint256",
          "name": "addedValue",
          "type": "uint256"
        }
      ],
      "name": "increaseAllowance",
      "outputs": [
        {
          "internalType": "bool",
          "name": "",
          "type": "bool"
        }
      ],
      "stateMutability": "nonpayable",
      "type": "function"
    },
    {
      "inputs": [],
      "name": "name",
      "outputs": [
        {
          "internalType": "string",
          "name": "",
          "type": "string"
        }
      ],
      "stateMutability": "view",
      "type": "function"
    },
    {
      "inputs": [
        {
          "internalType": "address",
          "name": "owner",
          "type": "address"
        }
      ],
      "name": "nonces",
      "outputs": [
        {
          "internalType": "uint256",
          "name": "",
          "type": "uint256"
        }
      ],
      "stateMutability": "view",
      "type": "function"
    },
    {
      "inputs": [
        {
          "internalType": "address",
          "name": "account",
          "type": "address"
        }
      ],
      "name": "numCheckpoints",
      "outputs": [
        {
          "internalType": "uint32",
          "name": "",
          "type": "uint32"
        }
      ],
      "stateMutability": "view",
      "type": "function"
    },
    {
      "inputs": [
        {
          "internalType": "address",
          "name": "owner",
          "type": "address"
        },
        {
          "internalType": "address",
          "name": "spender",
          "type": "address"
        },
        {
          "internalType": "uint256",
          "name": "value",
          "type": "uint256"
        },
        {
          "internalType": "uint256",
          "name": "deadline",
          "type": "uint256"
        },
        {
          "internalType": "uint8",
          "name": "v",
          "type": "uint8"
        },
        {
          "internalType": "bytes32",
          "name": "r",
          "type": "bytes32"
        },
        {
          "internalType": "bytes32",
          "name": "s",
          "type": "bytes32"
        }
      ],
      "name": "permit",
      "outputs": [],
      "stateMutability": "nonpayable",
      "type": "function"
    },
    {
      "inputs": [],
      "name": "symbol",
      "outputs": [
        {
          "internalType": "string",
          "name": "",
          "type": "string"
        }
      ],
      "stateMutability": "view",
      "type": "function"
    },
    {
      "inputs": [],
      "name": "totalSupply",
      "outputs": [
        {
          "internalType": "uint256",
          "name": "",
          "type": "uint256"
        }
      ],
      "stateMutability": "view",
      "type": "function"
    },
    {
      "inputs": [
        {
          "internalType": "address",
          "name": "to",
          "type": "address"
        },
        {
          "internalType": "uint256",
          "name": "amount",
          "type": "uint256"
        }
      ],
      "name": "transfer",
      "outputs": [
        {
          "internalType": "bool",
          "name": "",
          "type": "bool"
        }
      ],
      "stateMutability": "nonpayable",
      "type": "function"
    },
    {
      "inputs": [
        {
          "internalType": "address",
          "name": "from",
          "type": "address"
        },
        {
          "internalType": "address",
          "name": "to",
          "type": "address"
        },
        {
          "internalType": "uint256",
          "name": "amount",
          "type": "uint256"
        }
      ],
      "name": "transferFrom",
      "outputs": [
        {
          "internalType": "bool",
          "name": "",
          "type": "bool"
        }
      ],
      "stateMutability": "nonpayable",
      "type": "function"
    }
  ],
  "bytecode": "0x6101406040523480156200001257600080fd5b50604051620029113803806200291183398101604081905262000035916200081c565b604051806040016040528060058152602001642a37b5b2b760d91b81525080604051806040016040528060018152602001603160f81b815250604051806040016040528060058152602001642a37b5b2b760d91b815250604051806040016040528060018152602001601560fa1b8152508160039080519060200190620000be92919062000780565b508051620000d490600490602084019062000780565b5050825160208085019190912083518483012060e08290526101008190524660a0818152604080517f8b73c3c69bb8fe3d512ecc4cf759cc79239f7b179b0ffacaa9a75d522b39400f81880181905281830187905260608201869052608082019490945230818401528151808203909301835260c0019052805194019390932091935091906080523060601b60c05261012052506200017b93503392508491505062000182565b50620008d4565b6200019982826200019d60201b62000d491760201c565b5050565b620001b482826200025460201b62000dd91760201c565b6001600160e01b03620001c8620003438216565b1115620002355760405162461bcd60e51b815260206004820152603060248201527f4552433230566f7465733a20746f74616c20737570706c79207269736b73206f60448201526f766572666c6f77696e6720766f74657360801b60648201526084015b60405180910390fd5b6200024e600962000ec46200034960201b17836200035e565b50505050565b6001600160a01b038216620002ac5760405162461bcd60e51b815260206004820152601f60248201527f45524332303a206d696e7420746f20746865207a65726f20616464726573730060448201526064016200022c565b8060026000828254620002c091906200084c565b90915550506001600160a01b03821660009081526020819052604081208054839290620002ef9084906200084c565b90915550506040518181526001600160a01b038316906000907fddf252ad1be2c89b69c2b068fc378daa952ba7f163c4a11628f55a4df523b3ef9060200160405180910390a3620001996000838362000515565b60025490565b60006200035782846200084c565b9392505050565b825460009081908015620003b057856200037a60018362000867565b815481106200038d576200038d62000881565b60009182526020909120015464010000000090046001600160e01b0316620003b3565b60005b6001600160e01b03169250620003ca83858760201c565b91506000811180156200040e57504386620003e760018462000867565b81548110620003fa57620003fa62000881565b60009182526020909120015463ffffffff16145b1562000482576200042a826200052d60201b62000ed01760201c565b866200043860018462000867565b815481106200044b576200044b62000881565b9060005260206000200160000160046101000a8154816001600160e01b0302191690836001600160e01b0316021790555062000507565b856040518060400160405280620004a4436200059c60201b62000f3d1760201c565b63ffffffff168152602001620004c5856200052d60201b62000ed01760201c565b6001600160e01b0390811690915282546001810184556000938452602093849020835194909301519091166401000000000263ffffffff909316929092179101555b50935093915050565b505050565b620005108383836200060360201b62000fa21760201c565b60006001600160e01b03821115620005985760405162461bcd60e51b815260206004820152602760248201527f53616665436173743a2076616c756520646f65736e27742066697420696e20326044820152663234206269747360c81b60648201526084016200022c565b5090565b600063ffffffff821115620005985760405162461bcd60e51b815260206004820152602660248201527f53616665436173743a2076616c756520646f65736e27742066697420696e203360448201526532206269747360d01b60648201526084016200022c565b6200061b8383836200051060201b62000fd41760201c565b6001600160a01b0383811660009081526007602052604080822054858416835291205462000510929182169116838183148015906200065a5750600081115b1562000510576001600160a01b03831615620006e7576001600160a01b038316600090815260086020908152604082208291620006a4919062000772901b62000fd917856200035e565b91509150846001600160a01b0316600080516020620028f18339815191528383604051620006dc929190918252602082015260400190565b60405180910390a250505b6001600160a01b0382161562000510576001600160a01b0382166000908152600860209081526040822082916200072b919062000349901b62000ec417856200035e565b91509150836001600160a01b0316600080516020620028f1833981519152838360405162000763929190918252602082015260400190565b60405180910390a25050505050565b600062000357828462000867565b8280546200078e9062000897565b90600052602060002090601f016020900481019282620007b25760008555620007fd565b82601f10620007cd57805160ff1916838001178555620007fd565b82800160010185558215620007fd579182015b82811115620007fd578251825591602001919060010190620007e0565b50620005989291505b8082111562000598576000815560010162000806565b6000602082840312156200082f57600080fd5b5051919050565b634e487b7160e01b600052601160045260246000fd5b6000821982111562000862576200086262000836565b500190565b6000828210156200087c576200087c62000836565b500390565b634e487b7160e01b600052603260045260246000fd5b600181811c90821680620008ac57607f821691505b60208210811415620008ce57634e487b7160e01b600052602260045260246000fd5b50919050565b60805160a05160c05160601c60e0516101005161012051611fca6200092760003960006113db0152600061142a015260006114050152600061135e01526000611388015260006113b20152611fca6000f3fe608060405234801561001057600080fd5b506004361061014d5760003560e01c806370a08231116100c3578063a457c2d71161007c578063a457c2d7146102f5578063a9059cbb14610308578063c3cda5201461031b578063d505accf1461032e578063dd62ed3e14610341578063f1127ed81461035457600080fd5b806370a08231146102765780637ecebe001461029f578063876b1566146102b25780638e539e8c146102c757806395d89b41146102da5780639ab24eb0146102e257600080fd5b80633644e515116101155780633644e515146101c757806339509351146101cf5780633a46b1a8146101e2578063587cde1e146101f55780635c19a95c146102395780636fcfff451461024e57600080fd5b806306fdde0314610152578063095ea7b31461017057806318160ddd1461019357806323b872dd146101a5578063313ce567146101b8575b600080fd5b61015a610391565b6040516101679190611bdc565b60405180910390f35b61018361017e366004611c4d565b610423565b6040519015158152602001610167565b6002545b604051908152602001610167565b6101836101b3366004611c77565b61043b565b60405160128152602001610167565b61019761045f565b6101836101dd366004611c4d565b61046e565b6101976101f0366004611c4d565b610490565b610221610203366004611cb3565b6001600160a01b039081166000908152600760205260409020541690565b6040516001600160a01b039091168152602001610167565b61024c610247366004611cb3565b61050f565b005b61026161025c366004611cb3565b61051c565b60405163ffffffff9091168152602001610167565b610197610284366004611cb3565b6001600160a01b031660009081526020819052604090205490565b6101976102ad366004611cb3565b610544565b6102ba610562565b6040516101679190611cce565b6101976102d5366004611d26565b610695565b61015a6106f1565b6101976102f0366004611cb3565b610700565b610183610303366004611c4d565b610787565b610183610316366004611c4d565b610802565b61024c610329366004611d50565b610a00565b61024c61033c366004611da8565b610b36565b61019761034f366004611e12565b610c9a565b610367610362366004611e45565b610cc5565b60408051825163ffffffff1681526020928301516001600160e01b03169281019290925201610167565b6060600380546103a090611e85565b80601f01602080910402602001604051908101604052809291908181526020018280546103cc90611e85565b80156104195780601f106103ee57610100808354040283529160200191610419565b820191906000526020600020905b8154815290600101906020018083116103fc57829003601f168201915b5050505050905090565b600033610431818585610fe5565b5060019392505050565b600033610449858285611109565b61045485858561117d565b506001949350505050565b6000610469611351565b905090565b6000336104318185856104818383610c9a565b61048b9190611ed0565b610fe5565b60004382106104e65760405162461bcd60e51b815260206004820152601f60248201527f4552433230566f7465733a20626c6f636b206e6f7420796574206d696e65640060448201526064015b60405180910390fd5b6001600160a01b03831660009081526008602052604090206105089083611478565b9392505050565b6105193382611535565b50565b6001600160a01b03811660009081526008602052604081205461053e90610f3d565b92915050565b6001600160a01b03811660009081526005602052604081205461053e565b600a5460609060009067ffffffffffffffff81111561058357610583611ee8565b6040519080825280602002602001820160405280156105c857816020015b60408051808201909152600080825260208201528152602001906001900390816105a15790505b50905060005b600a5481101561068f576040518060400160405280600a83815481106105f6576105f6611efe565b9060005260206000200160009054906101000a90046001600160a01b03166001600160a01b0316815260200161065c600a848154811061063857610638611efe565b60009182526020808320909101546001600160a01b03168252819052604090205490565b81525082828151811061067157610671611efe565b6020026020010181905250808061068790611f14565b9150506105ce565b50919050565b60004382106106e65760405162461bcd60e51b815260206004820152601f60248201527f4552433230566f7465733a20626c6f636b206e6f7420796574206d696e65640060448201526064016104dd565b61053e600983611478565b6060600480546103a090611e85565b6001600160a01b0381166000908152600860205260408120548015610774576001600160a01b0383166000908152600860205260409020610742600183611f2f565b8154811061075257610752611efe565b60009182526020909120015464010000000090046001600160e01b0316610777565b60005b6001600160e01b03169392505050565b600033816107958286610c9a565b9050838110156107f55760405162461bcd60e51b815260206004820152602560248201527f45524332303a2064656372656173656420616c6c6f77616e63652062656c6f77604482015264207a65726f60d81b60648201526084016104dd565b6104548286868403610fe5565b60008061080f84846115ae565b90506000808080805b600a548110156108b057336001600160a01b0316600a828154811061083f5761083f611efe565b6000918252602090912001546001600160a01b0316141561085e578094505b886001600160a01b0316600a828154811061087b5761087b611efe565b6000918252602090912001546001600160a01b0316141561089e57809250600191505b806108a881611f14565b915050610818565b50336000908152602081905260409020548380156108cc575080155b156109a257825b600a546108e290600190611f2f565b81101561096d57600a6108f6826001611ed0565b8154811061090657610906611efe565b600091825260209091200154600a80546001600160a01b03909216918390811061093257610932611efe565b600091825260209091200180546001600160a01b0319166001600160a01b03929092169190911790558061096581611f14565b9150506108d3565b50600a80548061097f5761097f611f46565b600082815260209020810160001990810180546001600160a01b03191690550190555b816109f357600a80546001810182556000919091527fc65a7bb8d6351c1cf70c95a316cc6a92839c986682d98bc35f958f4883f9d2a80180546001600160a01b0319166001600160a01b038b161790555b5093979650505050505050565b83421115610a505760405162461bcd60e51b815260206004820152601d60248201527f4552433230566f7465733a207369676e6174757265206578706972656400000060448201526064016104dd565b604080517fe48329057bfd03d55e49b547132e39cffd9c1820ad7b9d4c5307691425d15adf60208201526001600160a01b038816918101919091526060810186905260808101859052600090610aca90610ac29060a001604051602081830303815290604052805190602001206115bc565b85858561160a565b9050610ad581611632565b8614610b235760405162461bcd60e51b815260206004820152601960248201527f4552433230566f7465733a20696e76616c6964206e6f6e63650000000000000060448201526064016104dd565b610b2d8188611535565b50505050505050565b83421115610b865760405162461bcd60e51b815260206004820152601d60248201527f45524332305065726d69743a206578706972656420646561646c696e6500000060448201526064016104dd565b60007f6e71edae12b1b97f4d1f60370fef10105fa2faae0126114a169c64845d6126c9888888610bb58c611632565b6040805160208101969096526001600160a01b0394851690860152929091166060840152608083015260a082015260c0810186905260e0016040516020818303038152906040528051906020012090506000610c10826115bc565b90506000610c208287878761160a565b9050896001600160a01b0316816001600160a01b031614610c835760405162461bcd60e51b815260206004820152601e60248201527f45524332305065726d69743a20696e76616c6964207369676e6174757265000060448201526064016104dd565b610c8e8a8a8a610fe5565b50505050505050505050565b6001600160a01b03918216600090815260016020908152604080832093909416825291909152205490565b60408051808201909152600080825260208201526001600160a01b0383166000908152600860205260409020805463ffffffff8416908110610d0957610d09611efe565b60009182526020918290206040805180820190915291015463ffffffff8116825264010000000090046001600160e01b0316918101919091529392505050565b610d538282610dd9565b6002546001600160e01b031015610dc55760405162461bcd60e51b815260206004820152603060248201527f4552433230566f7465733a20746f74616c20737570706c79207269736b73206f60448201526f766572666c6f77696e6720766f74657360801b60648201526084016104dd565b610dd36009610ec483611658565b50505050565b6001600160a01b038216610e2f5760405162461bcd60e51b815260206004820152601f60248201527f45524332303a206d696e7420746f20746865207a65726f20616464726573730060448201526064016104dd565b8060026000828254610e419190611ed0565b90915550506001600160a01b03821660009081526020819052604081208054839290610e6e908490611ed0565b90915550506040518181526001600160a01b038316906000907fddf252ad1be2c89b69c2b068fc378daa952ba7f163c4a11628f55a4df523b3ef9060200160405180910390a3610ec0600083836117d1565b5050565b60006105088284611ed0565b60006001600160e01b03821115610f395760405162461bcd60e51b815260206004820152602760248201527f53616665436173743a2076616c756520646f65736e27742066697420696e20326044820152663234206269747360c81b60648201526084016104dd565b5090565b600063ffffffff821115610f395760405162461bcd60e51b815260206004820152602660248201527f53616665436173743a2076616c756520646f65736e27742066697420696e203360448201526532206269747360d01b60648201526084016104dd565b6001600160a01b03838116600090815260076020526040808220548584168352912054610fd4929182169116836117dc565b505050565b60006105088284611f2f565b6001600160a01b0383166110475760405162461bcd60e51b8152602060048201526024808201527f45524332303a20617070726f76652066726f6d20746865207a65726f206164646044820152637265737360e01b60648201526084016104dd565b6001600160a01b0382166110a85760405162461bcd60e51b815260206004820152602260248201527f45524332303a20617070726f766520746f20746865207a65726f206164647265604482015261737360f01b60648201526084016104dd565b6001600160a01b0383811660008181526001602090815260408083209487168084529482529182902085905590518481527f8c5be1e5ebec7d5bd14f71427d1e84f3dd0314c0f7b2291e5b200ac8c7c3b925910160405180910390a3505050565b60006111158484610c9a565b90506000198114610dd357818110156111705760405162461bcd60e51b815260206004820152601d60248201527f45524332303a20696e73756666696369656e7420616c6c6f77616e636500000060448201526064016104dd565b610dd38484848403610fe5565b6001600160a01b0383166111e15760405162461bcd60e51b815260206004820152602560248201527f45524332303a207472616e736665722066726f6d20746865207a65726f206164604482015264647265737360d81b60648201526084016104dd565b6001600160a01b0382166112435760405162461bcd60e51b815260206004820152602360248201527f45524332303a207472616e7366657220746f20746865207a65726f206164647260448201526265737360e81b60648201526084016104dd565b6001600160a01b038316600090815260208190526040902054818110156112bb5760405162461bcd60e51b815260206004820152602660248201527f45524332303a207472616e7366657220616d6f756e7420657863656564732062604482015265616c616e636560d01b60648201526084016104dd565b6001600160a01b038085166000908152602081905260408082208585039055918516815290812080548492906112f2908490611ed0565b92505081905550826001600160a01b0316846001600160a01b03167fddf252ad1be2c89b69c2b068fc378daa952ba7f163c4a11628f55a4df523b3ef8460405161133e91815260200190565b60405180910390a3610dd38484846117d1565b6000306001600160a01b037f0000000000000000000000000000000000000000000000000000000000000000161480156113aa57507f000000000000000000000000000000000000000000000000000000000000000046145b156113d457507f000000000000000000000000000000000000000000000000000000000000000090565b50604080517f00000000000000000000000000000000000000000000000000000000000000006020808301919091527f0000000000000000000000000000000000000000000000000000000000000000828401527f000000000000000000000000000000000000000000000000000000000000000060608301524660808301523060a0808401919091528351808403909101815260c0909201909252805191012090565b8154600090815b818110156114dc5760006114938284611919565b9050848682815481106114a8576114a8611efe565b60009182526020909120015463ffffffff1611156114c8578092506114d6565b6114d3816001611ed0565b91505b5061147f565b811561152057846114ee600184611f2f565b815481106114fe576114fe611efe565b60009182526020909120015464010000000090046001600160e01b0316611523565b60005b6001600160e01b031695945050505050565b6001600160a01b038281166000818152600760208181526040808420805485845282862054949093528787166001600160a01b03198416811790915590519190951694919391928592917f3134e8a2e6d97e929a7e54011ea5485d7d196dd5f0ba4d4ef95803e8e3fc257f9190a4610dd38284836117dc565b60003361043181858561117d565b600061053e6115c9611351565b8360405161190160f01b6020820152602281018390526042810182905260009060620160405160208183030381529060405280519060200120905092915050565b600080600061161b87878787611934565b9150915061162881611a21565b5095945050505050565b6001600160a01b038116600090815260056020526040902080546001810182559061068f565b8254600090819080156116a35785611671600183611f2f565b8154811061168157611681611efe565b60009182526020909120015464010000000090046001600160e01b03166116a6565b60005b6001600160e01b031692506116bf83858763ffffffff16565b91506000811180156116fd575043866116d9600184611f2f565b815481106116e9576116e9611efe565b60009182526020909120015463ffffffff16145b1561175d5761170b82610ed0565b86611717600184611f2f565b8154811061172757611727611efe565b9060005260206000200160000160046101000a8154816001600160e01b0302191690836001600160e01b031602179055506117c8565b85604051806040016040528061177243610f3d565b63ffffffff16815260200161178685610ed0565b6001600160e01b0390811690915282546001810184556000938452602093849020835194909301519091166401000000000263ffffffff909316929092179101555b50935093915050565b610fd4838383610fa2565b816001600160a01b0316836001600160a01b0316141580156117fe5750600081115b15610fd4576001600160a01b0383161561188c576001600160a01b0383166000908152600860205260408120819061183990610fd985611658565b91509150846001600160a01b03167fdec2bacdd2f05b59de34da9b523dff8be42e5e38e818c82fdb0bae774387a7248383604051611881929190918252602082015260400190565b60405180910390a250505b6001600160a01b03821615610fd4576001600160a01b038216600090815260086020526040812081906118c290610ec485611658565b91509150836001600160a01b03167fdec2bacdd2f05b59de34da9b523dff8be42e5e38e818c82fdb0bae774387a724838360405161190a929190918252602082015260400190565b60405180910390a25050505050565b60006119286002848418611f5c565b61050890848416611ed0565b6000807f7fffffffffffffffffffffffffffffff5d576e7357a4501ddfe92f46681b20a083111561196b5750600090506003611a18565b8460ff16601b1415801561198357508460ff16601c14155b156119945750600090506004611a18565b6040805160008082526020820180845289905260ff881692820192909252606081018690526080810185905260019060a0016020604051602081039080840390855afa1580156119e8573d6000803e3d6000fd5b5050604051601f1901519150506001600160a01b038116611a1157600060019250925050611a18565b9150600090505b94509492505050565b6000816004811115611a3557611a35611f7e565b1415611a3e5750565b6001816004811115611a5257611a52611f7e565b1415611aa05760405162461bcd60e51b815260206004820152601860248201527f45434453413a20696e76616c6964207369676e6174757265000000000000000060448201526064016104dd565b6002816004811115611ab457611ab4611f7e565b1415611b025760405162461bcd60e51b815260206004820152601f60248201527f45434453413a20696e76616c6964207369676e6174757265206c656e6774680060448201526064016104dd565b6003816004811115611b1657611b16611f7e565b1415611b6f5760405162461bcd60e51b815260206004820152602260248201527f45434453413a20696e76616c6964207369676e6174757265202773272076616c604482015261756560f01b60648201526084016104dd565b6004816004811115611b8357611b83611f7e565b14156105195760405162461bcd60e51b815260206004820152602260248201527f45434453413a20696e76616c6964207369676e6174757265202776272076616c604482015261756560f01b60648201526084016104dd565b600060208083528351808285015260005b81811015611c0957858101830151858201604001528201611bed565b81811115611c1b576000604083870101525b50601f01601f1916929092016040019392505050565b80356001600160a01b0381168114611c4857600080fd5b919050565b60008060408385031215611c6057600080fd5b611c6983611c31565b946020939093013593505050565b600080600060608486031215611c8c57600080fd5b611c9584611c31565b9250611ca360208501611c31565b9150604084013590509250925092565b600060208284031215611cc557600080fd5b61050882611c31565b602080825282518282018190526000919060409081850190868401855b82811015611d1957815180516001600160a01b03168552860151868501529284019290850190600101611ceb565b5091979650505050505050565b600060208284031215611d3857600080fd5b5035919050565b803560ff81168114611c4857600080fd5b60008060008060008060c08789031215611d6957600080fd5b611d7287611c31565b95506020870135945060408701359350611d8e60608801611d3f565b92506080870135915060a087013590509295509295509295565b600080600080600080600060e0888a031215611dc357600080fd5b611dcc88611c31565b9650611dda60208901611c31565b95506040880135945060608801359350611df660808901611d3f565b925060a0880135915060c0880135905092959891949750929550565b60008060408385031215611e2557600080fd5b611e2e83611c31565b9150611e3c60208401611c31565b90509250929050565b60008060408385031215611e5857600080fd5b611e6183611c31565b9150602083013563ffffffff81168114611e7a57600080fd5b809150509250929050565b600181811c90821680611e9957607f821691505b6020821081141561068f57634e487b7160e01b600052602260045260246000fd5b634e487b7160e01b600052601160045260246000fd5b60008219821115611ee357611ee3611eba565b500190565b634e487b7160e01b600052604160045260246000fd5b634e487b7160e01b600052603260045260246000fd5b6000600019821415611f2857611f28611eba565b5060010190565b600082821015611f4157611f41611eba565b500390565b634e487b7160e01b600052603160045260246000fd5b600082611f7957634e487b7160e01b600052601260045260246000fd5b500490565b634e487b7160e01b600052602160045260246000fdfea26469706673582212208a350781fb42b95fcd37e32f38c0390751ebaadff77be590c702a6dc23998ecd64736f6c63430008080033dec2bacdd2f05b59de34da9b523dff8be42e5e38e818c82fdb0bae774387a724",
  "linkReferences": {},
  "deployedLinkReferences": {}
}