{
  "_format": "hh-sol-artifact-1",
  "contractName": "Treasury",
  "sourceName": "contracts/Treasury.sol",
  "abi": [
    {
      "inputs": [],
      "stateMutability": "payable",
      "type": "constructor"
    },
    {
      "anonymous": false,
      "inputs": [
        {
          "indexed": true,
          "internalType": "address",
          "name": "previousOwner",
          "type": "address"
        },
        {
          "indexed": true,
          "internalType": "address",
          "name": "newOwner",
          "type": "address"
        }
      ],
      "name": "OwnershipTransferred",
      "type": "event"
    },
    {
      "inputs": [],
      "name": "owner",
      "outputs": [
        {
          "internalType": "address",
          "name": "",
          "type": "address"
        }
      ],
      "stateMutability": "view",
      "type": "function"
    },
    {
      "inputs": [
        {
          "internalType": "address",
          "name": "_payee",
          "type": "address"
        },
        {
          "internalType": "uint256",
          "name": "_amount",
          "type": "uint256"
        }
      ],
      "name": "releaseFunds",
      "outputs": [],
      "stateMutability": "nonpayable",
      "type": "function"
    },
    {
      "inputs": [],
      "name": "renounceOwnership",
      "outputs": [],
      "stateMutability": "nonpayable",
      "type": "function"
    },
    {
      "inputs": [],
      "name": "totalFunds",
      "outputs": [
        {
          "internalType": "uint256",
          "name": "",
          "type": "uint256"
        }
      ],
      "stateMutability": "view",
      "type": "function"
    },
    {
      "inputs": [
        {
          "internalType": "address",
          "name": "newOwner",
          "type": "address"
        }
      ],
      "name": "transferOwnership",
      "outputs": [],
      "stateMutability": "nonpayable",
      "type": "function"
    }
  ],
  "bytecode": "0x608060405261000d33610016565b34600155610066565b600080546001600160a01b038381166001600160a01b0319831681178455604051919092169283917f8be0079c531659141344cd1fd0a4f28419497f9722a3daafe3b4186f6b6457e09190a35050565b610334806100756000396000f3fe608060405234801561001057600080fd5b50600436106100575760003560e01c8063715018a61461005c5780638da5cb5b14610066578063968ed60014610086578063d6e982e51461009d578063f2fde38b146100b0575b600080fd5b6100646100c3565b005b6000546040516001600160a01b0390911681526020015b60405180910390f35b61008f60015481565b60405190815260200161007d565b6100646100ab36600461027d565b610102565b6100646100be3660046102a7565b610176565b6000546001600160a01b031633146100f65760405162461bcd60e51b81526004016100ed906102c9565b60405180910390fd5b6101006000610211565b565b6000546001600160a01b0316331461012c5760405162461bcd60e51b81526004016100ed906102c9565b80600154101561013b57600080fd5b6040516001600160a01b0383169082156108fc029083906000818181858888f19350505050158015610171573d6000803e3d6000fd5b505050565b6000546001600160a01b031633146101a05760405162461bcd60e51b81526004016100ed906102c9565b6001600160a01b0381166102055760405162461bcd60e51b815260206004820152602660248201527f4f776e61626c653a206e6577206f776e657220697320746865207a65726f206160448201526564647265737360d01b60648201526084016100ed565b61020e81610211565b50565b600080546001600160a01b038381166001600160a01b0319831681178455604051919092169283917f8be0079c531659141344cd1fd0a4f28419497f9722a3daafe3b4186f6b6457e09190a35050565b80356001600160a01b038116811461027857600080fd5b919050565b6000806040838503121561029057600080fd5b61029983610261565b946020939093013593505050565b6000602082840312156102b957600080fd5b6102c282610261565b9392505050565b6020808252818101527f4f776e61626c653a2063616c6c6572206973206e6f7420746865206f776e657260408201526060019056fea264697066735822122052caabaf7a86864cf1e42aeb3e3ff90f2b0626e901c8dfdae5471d43a6504a3364736f6c63430008080033",
  "linkReferences": {},
  "deployedLinkReferences": {}
}